{
  "contractName": "TimeLockWallet",
  "abi": [
    {
      "inputs": [
        {
          "internalType": "contract IERC20",
          "name": "token_",
          "type": "address"
        },
        {
          "internalType": "address",
          "name": "beneficiary_",
          "type": "address"
        },
        {
          "internalType": "address",
          "name": "creator_",
          "type": "address"
        },
        {
          "internalType": "uint256",
          "name": "createdTime_",
          "type": "uint256"
        },
        {
          "internalType": "uint256",
          "name": "releaseTime_",
          "type": "uint256"
        }
      ],
      "name": "init",
      "outputs": [],
      "stateMutability": "nonpayable",
      "type": "function"
    },
    {
      "inputs": [],
      "name": "token",
      "outputs": [
        {
          "internalType": "contract IERC20",
          "name": "",
          "type": "address"
        }
      ],
      "stateMutability": "view",
      "type": "function",
      "constant": true
    },
    {
      "inputs": [],
      "name": "beneficiary",
      "outputs": [
        {
          "internalType": "address",
          "name": "",
          "type": "address"
        }
      ],
      "stateMutability": "view",
      "type": "function",
      "constant": true
    },
    {
      "inputs": [],
      "name": "creator",
      "outputs": [
        {
          "internalType": "address",
          "name": "",
          "type": "address"
        }
      ],
      "stateMutability": "view",
      "type": "function",
      "constant": true
    },
    {
      "inputs": [],
      "name": "createdTime",
      "outputs": [
        {
          "internalType": "uint256",
          "name": "",
          "type": "uint256"
        }
      ],
      "stateMutability": "view",
      "type": "function",
      "constant": true
    },
    {
      "inputs": [],
      "name": "releaseTime",
      "outputs": [
        {
          "internalType": "uint256",
          "name": "",
          "type": "uint256"
        }
      ],
      "stateMutability": "view",
      "type": "function",
      "constant": true
    },
    {
      "inputs": [],
      "name": "releaseToken",
      "outputs": [],
      "stateMutability": "nonpayable",
      "type": "function"
    },
    {
      "inputs": [],
      "name": "depositEther",
      "outputs": [],
      "stateMutability": "payable",
      "type": "function",
      "payable": true
    },
    {
      "inputs": [],
      "name": "getEtherBalance",
      "outputs": [
        {
          "internalType": "uint256",
          "name": "",
          "type": "uint256"
        }
      ],
      "stateMutability": "view",
      "type": "function",
      "constant": true
    },
    {
      "inputs": [],
      "name": "releaseEther",
      "outputs": [],
      "stateMutability": "nonpayable",
      "type": "function"
    },
    {
      "inputs": [],
      "name": "getWalletDetails",
      "outputs": [
        {
          "internalType": "address",
          "name": "",
          "type": "address"
        },
        {
          "internalType": "address",
          "name": "",
          "type": "address"
        },
        {
          "internalType": "uint256",
          "name": "",
          "type": "uint256"
        },
        {
          "internalType": "uint256",
          "name": "",
          "type": "uint256"
        },
        {
          "internalType": "uint256",
          "name": "",
          "type": "uint256"
        },
        {
          "internalType": "uint256",
          "name": "",
          "type": "uint256"
        }
      ],
      "stateMutability": "view",
      "type": "function",
      "constant": true
    }
  ],
  "bytecode": "0x608060405234801561001057600080fd5b506113a6806100206000396000f3fe60806040526004361061009c5760003560e01c806398ea5fca1161006457806398ea5fca14610167578063b2f4bdb014610171578063b91d40011461019c578063ea46193e146101c7578063ec715a31146101f2578063fc0c546a146102095761009c565b80630145e333146100a157806302d05d3f146100ca5780631b4d15ae146100f557806338af3eed1461010c578063580da36014610137575b600080fd5b3480156100ad57600080fd5b506100c860048036038101906100c39190610ba2565b610234565b005b3480156100d657600080fd5b506100df61034d565b6040516100ec9190610c2c565b60405180910390f35b34801561010157600080fd5b5061010a610377565b005b34801561011857600080fd5b506101216104ad565b60405161012e9190610c2c565b60405180910390f35b34801561014357600080fd5b5061014c6104d7565b60405161015e96959493929190610c56565b60405180910390f35b61016f6105c2565b005b34801561017d57600080fd5b506101866105c4565b6040516101939190610cb7565b60405180910390f35b3480156101a857600080fd5b506101b16105ce565b6040516101be9190610cb7565b60405180910390f35b3480156101d357600080fd5b506101dc6105d8565b6040516101e99190610cb7565b60405180910390f35b3480156101fe57600080fd5b506102076105e0565b005b34801561021557600080fd5b5061021e610788565b60405161022b9190610d31565b60405180910390f35b428111610276576040517f08c379a000000000000000000000000000000000000000000000000000000000815260040161026d90610dcf565b60405180910390fd5b846000806101000a81548173ffffffffffffffffffffffffffffffffffffffff021916908373ffffffffffffffffffffffffffffffffffffffff16021790555083600160006101000a81548173ffffffffffffffffffffffffffffffffffffffff021916908373ffffffffffffffffffffffffffffffffffffffff16021790555082600360006101000a81548173ffffffffffffffffffffffffffffffffffffffff021916908373ffffffffffffffffffffffffffffffffffffffff16021790555081600481905550806002819055505050505050565b6000600360009054906101000a900473ffffffffffffffffffffffffffffffffffffffff16905090565b600160009054906101000a900473ffffffffffffffffffffffffffffffffffffffff1673ffffffffffffffffffffffffffffffffffffffff163373ffffffffffffffffffffffffffffffffffffffff16146103d157600080fd5b6103d96105ce565b42101561041b576040517f08c379a000000000000000000000000000000000000000000000000000000000815260040161041290610e61565b60405180910390fd5b600047905060008111610463576040517f08c379a000000000000000000000000000000000000000000000000000000000815260040161045a90610ecd565b60405180910390fd5b3373ffffffffffffffffffffffffffffffffffffffff166108fc829081150290604051600060405180830381858888f193505050501580156104a9573d6000803e3d6000fd5b5050565b6000600160009054906101000a900473ffffffffffffffffffffffffffffffffffffffff16905090565b600080600080600080600160009054906101000a900473ffffffffffffffffffffffffffffffffffffffff16600360009054906101000a900473ffffffffffffffffffffffffffffffffffffffff1660025460045447610535610788565b73ffffffffffffffffffffffffffffffffffffffff166370a08231306040518263ffffffff1660e01b815260040161056d9190610c2c565b602060405180830381865afa15801561058a573d6000803e3d6000fd5b505050506040513d601f19601f820116820180604052508101906105ae9190610f02565b955095509550955095509550909192939495565b565b6000600454905090565b6000600254905090565b600047905090565b600160009054906101000a900473ffffffffffffffffffffffffffffffffffffffff1673ffffffffffffffffffffffffffffffffffffffff163373ffffffffffffffffffffffffffffffffffffffff161461063a57600080fd5b6106426105ce565b421015610684576040517f08c379a000000000000000000000000000000000000000000000000000000000815260040161067b90610fa1565b60405180910390fd5b600061068e610788565b73ffffffffffffffffffffffffffffffffffffffff166370a08231306040518263ffffffff1660e01b81526004016106c69190610c2c565b602060405180830381865afa1580156106e3573d6000803e3d6000fd5b505050506040513d601f19601f820116820180604052508101906107079190610f02565b90506000811161074c576040517f08c379a000000000000000000000000000000000000000000000000000000000815260040161074390611033565b60405180910390fd5b6107856107576104ad565b82610760610788565b73ffffffffffffffffffffffffffffffffffffffff166107b19092919063ffffffff16565b50565b60008060009054906101000a900473ffffffffffffffffffffffffffffffffffffffff16905090565b6108328363a9059cbb60e01b84846040516024016107d0929190611053565b604051602081830303815290604052907bffffffffffffffffffffffffffffffffffffffffffffffffffffffff19166020820180517bffffffffffffffffffffffffffffffffffffffffffffffffffffffff8381831617835250505050610837565b505050565b6000610899826040518060400160405280602081526020017f5361666545524332303a206c6f772d6c6576656c2063616c6c206661696c65648152508573ffffffffffffffffffffffffffffffffffffffff166108fe9092919063ffffffff16565b90506000815111156108f957808060200190518101906108b991906110b4565b6108f8576040517f08c379a00000000000000000000000000000000000000000000000000000000081526004016108ef90611153565b60405180910390fd5b5b505050565b606061090d8484600085610916565b90509392505050565b60608247101561095b576040517f08c379a0000000000000000000000000000000000000000000000000000000008152600401610952906111e5565b60405180910390fd5b6000808673ffffffffffffffffffffffffffffffffffffffff1685876040516109849190611276565b60006040518083038185875af1925050503d80600081146109c1576040519150601f19603f3d011682016040523d82523d6000602084013e6109c6565b606091505b50915091506109d7878383876109e3565b92505050949350505050565b60608315610a45576000835103610a3d576109fd85610a58565b610a3c576040517f08c379a0000000000000000000000000000000000000000000000000000000008152600401610a33906112d9565b60405180910390fd5b5b829050610a50565b610a4f8383610a7b565b5b949350505050565b6000808273ffffffffffffffffffffffffffffffffffffffff163b119050919050565b600082511115610a8e5781518083602001fd5b806040517f08c379a0000000000000000000000000000000000000000000000000000000008152600401610ac2919061134e565b60405180910390fd5b600080fd5b600073ffffffffffffffffffffffffffffffffffffffff82169050919050565b6000610afb82610ad0565b9050919050565b6000610b0d82610af0565b9050919050565b610b1d81610b02565b8114610b2857600080fd5b50565b600081359050610b3a81610b14565b92915050565b610b4981610af0565b8114610b5457600080fd5b50565b600081359050610b6681610b40565b92915050565b6000819050919050565b610b7f81610b6c565b8114610b8a57600080fd5b50565b600081359050610b9c81610b76565b92915050565b600080600080600060a08688031215610bbe57610bbd610acb565b5b6000610bcc88828901610b2b565b9550506020610bdd88828901610b57565b9450506040610bee88828901610b57565b9350506060610bff88828901610b8d565b9250506080610c1088828901610b8d565b9150509295509295909350565b610c2681610af0565b82525050565b6000602082019050610c416000830184610c1d565b92915050565b610c5081610b6c565b82525050565b600060c082019050610c6b6000830189610c1d565b610c786020830188610c1d565b610c856040830187610c47565b610c926060830186610c47565b610c9f6080830185610c47565b610cac60a0830184610c47565b979650505050505050565b6000602082019050610ccc6000830184610c47565b92915050565b6000819050919050565b6000610cf7610cf2610ced84610ad0565b610cd2565b610ad0565b9050919050565b6000610d0982610cdc565b9050919050565b6000610d1b82610cfe565b9050919050565b610d2b81610d10565b82525050565b6000602082019050610d466000830184610d22565b92915050565b600082825260208201905092915050565b7f546f6b656e54696d656c6f636b3a2072656c656173652074696d65206973206260008201527f65666f72652063757272656e742074696d650000000000000000000000000000602082015250565b6000610db9603283610d4c565b9150610dc482610d5d565b604082019050919050565b60006020820190508181036000830152610de881610dac565b9050919050565b7f43757272656e742074696d65206973206265666f72652072656c65617365207460008201527f696d650000000000000000000000000000000000000000000000000000000000602082015250565b6000610e4b602383610d4c565b9150610e5682610def565b604082019050919050565b60006020820190508181036000830152610e7a81610e3e565b9050919050565b7f4e6f2045746865727320746f2072656c65617365000000000000000000000000600082015250565b6000610eb7601483610d4c565b9150610ec282610e81565b602082019050919050565b60006020820190508181036000830152610ee681610eaa565b9050919050565b600081519050610efc81610b76565b92915050565b600060208284031215610f1857610f17610acb565b5b6000610f2684828501610eed565b91505092915050565b7f546f6b656e54696d656c6f636b3a2063757272656e742074696d65206973206260008201527f65666f72652072656c656173652074696d650000000000000000000000000000602082015250565b6000610f8b603283610d4c565b9150610f9682610f2f565b604082019050919050565b60006020820190508181036000830152610fba81610f7e565b9050919050565b7f546f6b656e54696d656c6f636b3a206e6f20746f6b656e7320746f2072656c6560008201527f6173650000000000000000000000000000000000000000000000000000000000602082015250565b600061101d602383610d4c565b915061102882610fc1565b604082019050919050565b6000602082019050818103600083015261104c81611010565b9050919050565b60006040820190506110686000830185610c1d565b6110756020830184610c47565b9392505050565b60008115159050919050565b6110918161107c565b811461109c57600080fd5b50565b6000815190506110ae81611088565b92915050565b6000602082840312156110ca576110c9610acb565b5b60006110d88482850161109f565b91505092915050565b7f5361666545524332303a204552433230206f7065726174696f6e20646964206e60008201527f6f74207375636365656400000000000000000000000000000000000000000000602082015250565b600061113d602a83610d4c565b9150611148826110e1565b604082019050919050565b6000602082019050818103600083015261116c81611130565b9050919050565b7f416464726573733a20696e73756666696369656e742062616c616e636520666f60008201527f722063616c6c0000000000000000000000000000000000000000000000000000602082015250565b60006111cf602683610d4c565b91506111da82611173565b604082019050919050565b600060208201905081810360008301526111fe816111c2565b9050919050565b600081519050919050565b600081905092915050565b60005b8381101561123957808201518184015260208101905061121e565b60008484015250505050565b600061125082611205565b61125a8185611210565b935061126a81856020860161121b565b80840191505092915050565b60006112828284611245565b915081905092915050565b7f416464726573733a2063616c6c20746f206e6f6e2d636f6e7472616374000000600082015250565b60006112c3601d83610d4c565b91506112ce8261128d565b602082019050919050565b600060208201905081810360008301526112f2816112b6565b9050919050565b600081519050919050565b6000601f19601f8301169050919050565b6000611320826112f9565b61132a8185610d4c565b935061133a81856020860161121b565b61134381611304565b840191505092915050565b600060208201905081810360008301526113688184611315565b90509291505056fea26469706673582212204369b3d442fd9cc0566ec519de50efd867d9971bffc2278d7a95225fdb2e6a7064736f6c63430008130033",
  "immutableReferences": {},
  "source": "// SPDX-License-Identifier: MIT\r\npragma solidity >=0.4.22 <0.9.0;\r\n\r\nimport \"../node_modules/@openzeppelin/contracts/token/ERC20/utils/SafeERC20.sol\";\r\n\r\ncontract TimeLockWallet {\r\n    using SafeERC20 for IERC20;\r\n\r\n    // ERC20 basic token contract being held\r\n    IERC20 private _token;\r\n\r\n    // beneficiary of tokens after they are released\r\n    address private _beneficiary;\r\n\r\n    // timestamp when token release is enabled\r\n    uint256 private _releaseTime;\r\n\r\n    address private _creator;\r\n\r\n    uint256 private _createdTime;\r\n\r\n    modifier onlyOwner {\r\n        require(msg.sender == _beneficiary);\r\n        _;\r\n    }\r\n\r\n    function init(\r\n        IERC20 token_,\r\n        address beneficiary_,\r\n        address creator_,\r\n        uint256 createdTime_,\r\n        uint256 releaseTime_\r\n    ) external {\r\n        // solhint-disable-next-line not-rely-on-time\r\n        require(\r\n            releaseTime_ > block.timestamp,\r\n            \"TokenTimelock: release time is before current time\"\r\n        );\r\n        _token = token_;\r\n        _beneficiary = beneficiary_;\r\n        _creator = creator_;\r\n        _createdTime = createdTime_;\r\n        _releaseTime = releaseTime_;\r\n    }\r\n\r\n    /**\r\n     * @return the token being held.\r\n     */\r\n    function token() public view virtual returns (IERC20) {\r\n        return _token;\r\n    }\r\n\r\n    /**\r\n     * @return the beneficiary of the tokens.\r\n     */\r\n    function beneficiary() public view virtual returns (address) {\r\n        return _beneficiary;\r\n    }\r\n\r\n    function creator() public view virtual returns (address) {\r\n        return _creator;\r\n    }\r\n\r\n    function createdTime() public view virtual returns (uint256) {\r\n        return _createdTime;\r\n    }\r\n\r\n    /**\r\n     * @return the time when the tokens are released.\r\n     */\r\n    function releaseTime() public view virtual returns (uint256) {\r\n        return _releaseTime;\r\n    }\r\n\r\n    /**\r\n     * @notice Transfers tokens held by timelock to beneficiary.\r\n     */\r\n    function releaseToken() public virtual onlyOwner {\r\n        // solhint-disable-next-line not-rely-on-time\r\n        require(\r\n            block.timestamp >= releaseTime(),\r\n            \"TokenTimelock: current time is before release time\"\r\n        );\r\n\r\n        uint256 amount = token().balanceOf(address(this));\r\n        require(amount > 0, \"TokenTimelock: no tokens to release\");\r\n\r\n        token().safeTransfer(beneficiary(), amount);\r\n    }\r\n\r\n    function depositEther() public payable {}\r\n\r\n    function getEtherBalance() public view returns (uint256) {\r\n        return address(this).balance;\r\n    }\r\n\r\n    function releaseEther() public onlyOwner {\r\n        // solhint-disable-next-line not-rely-on-time\r\n        require(\r\n            block.timestamp >= releaseTime(),\r\n            \"Current time is before release time\"\r\n        );\r\n\r\n        uint256 amount = address(this).balance;\r\n        require(amount > 0, \"No Ethers to release\");\r\n\r\n        payable(msg.sender).transfer(amount);\r\n    }\r\n\r\n    function getWalletDetails()\r\n        public\r\n        view\r\n        returns (\r\n            address,\r\n            address,\r\n            uint256,\r\n            uint256,\r\n            uint256,\r\n            uint256\r\n        )\r\n    {\r\n        return (\r\n            _beneficiary,\r\n            _creator,\r\n            _releaseTime,\r\n            _createdTime,\r\n            address(this).balance,\r\n            token().balanceOf(address(this))\r\n        );\r\n    }\r\n}\r\n",
  "sourcePath": "D:\\deepak\\practise\\block_prj\\newblock\\contracts\\TimeLockWallet.sol",
  "compiler": {
    "name": "solc",
    "version": "0.8.19+commit.7dd6d404.Emscripten.clang"
  },
  "schemaVersion": "3.4.13",
  "updatedAt": "2023-04-16T06:03:59.358Z",
  "networkType": "ethereum",
  "devdoc": {
    "kind": "dev",
    "methods": {
      "beneficiary()": {
        "returns": {
          "_0": "the beneficiary of the tokens."
        }
      },
      "releaseTime()": {
        "returns": {
          "_0": "the time when the tokens are released."
        }
      },
      "token()": {
        "returns": {
          "_0": "the token being held."
        }
      }
    },
    "version": 1
  },
  "userdoc": {
    "kind": "user",
    "methods": {
      "releaseToken()": {
        "notice": "Transfers tokens held by timelock to beneficiary."
      }
    },
    "version": 1
  }
}