{
  "contractName": "TimeLockWalletFactory",
  "abi": [
    {
      "inputs": [
        {
          "internalType": "address",
          "name": "_masterContract",
          "type": "address"
        }
      ],
      "stateMutability": "nonpayable",
      "type": "constructor"
    },
    {
      "anonymous": false,
      "inputs": [
        {
          "indexed": true,
          "internalType": "address",
          "name": "wallet",
          "type": "address"
        },
        {
          "indexed": true,
          "internalType": "address",
          "name": "beneficiary",
          "type": "address"
        },
        {
          "indexed": false,
          "internalType": "address",
          "name": "creator",
          "type": "address"
        },
        {
          "indexed": false,
          "internalType": "uint256",
          "name": "releaseTime",
          "type": "uint256"
        },
        {
          "indexed": false,
          "internalType": "uint256",
          "name": "createdAt",
          "type": "uint256"
        },
        {
          "indexed": false,
          "internalType": "uint256",
          "name": "amount",
          "type": "uint256"
        }
      ],
      "name": "Created",
      "type": "event"
    },
    {
      "inputs": [],
      "name": "newWallet",
      "outputs": [
        {
          "internalType": "contract TimeLockWallet",
          "name": "",
          "type": "address"
        }
      ],
      "stateMutability": "view",
      "type": "function",
      "constant": true
    },
    {
      "inputs": [
        {
          "internalType": "contract IERC20",
          "name": "token",
          "type": "address"
        },
        {
          "internalType": "address",
          "name": "beneficiary",
          "type": "address"
        },
        {
          "internalType": "uint256",
          "name": "releaseTime",
          "type": "uint256"
        }
      ],
      "name": "createNewWallet",
      "outputs": [
        {
          "internalType": "bool",
          "name": "",
          "type": "bool"
        }
      ],
      "stateMutability": "payable",
      "type": "function",
      "payable": true
    },
    {
      "inputs": [
        {
          "internalType": "address",
          "name": "owner",
          "type": "address"
        }
      ],
      "name": "getWalletList",
      "outputs": [
        {
          "internalType": "address[]",
          "name": "",
          "type": "address[]"
        }
      ],
      "stateMutability": "view",
      "type": "function",
      "constant": true
    }
  ],
  "bytecode": "0x608060405234801561001057600080fd5b506040516108f23803806108f2833981810160405281019061003291906100dc565b80600260006101000a81548173ffffffffffffffffffffffffffffffffffffffff021916908373ffffffffffffffffffffffffffffffffffffffff16021790555050610109565b600080fd5b600073ffffffffffffffffffffffffffffffffffffffff82169050919050565b60006100a98261007e565b9050919050565b6100b98161009e565b81146100c457600080fd5b50565b6000815190506100d6816100b0565b92915050565b6000602082840312156100f2576100f1610079565b5b6000610100848285016100c7565b91505092915050565b6107da806101186000396000f3fe6080604052600436106100345760003560e01c80634a8671f1146100395780634a883746146100645780635e9beda614610094575b600080fd5b34801561004557600080fd5b5061004e6100d1565b60405161005b9190610465565b60405180910390f35b61007e60048036038101906100799190610537565b6100f5565b60405161008b91906105a5565b60405180910390f35b3480156100a057600080fd5b506100bb60048036038101906100b691906105c0565b6102af565b6040516100c891906106ab565b60405180910390f35b60008054906101000a900473ffffffffffffffffffffffffffffffffffffffff1681565b600080610123600260009054906101000a900473ffffffffffffffffffffffffffffffffffffffff1661037c565b90508073ffffffffffffffffffffffffffffffffffffffff16630145e33386863342886040518663ffffffff1660e01b815260040161016695949392919061070c565b600060405180830381600087803b15801561018057600080fd5b505af1158015610194573d6000803e3d6000fd5b50505050600160008573ffffffffffffffffffffffffffffffffffffffff1673ffffffffffffffffffffffffffffffffffffffff168152602001908152602001600020819080600181540180825580915050600190039060005260206000200160009091909190916101000a81548173ffffffffffffffffffffffffffffffffffffffff021916908373ffffffffffffffffffffffffffffffffffffffff1602179055508373ffffffffffffffffffffffffffffffffffffffff168173ffffffffffffffffffffffffffffffffffffffff167f14d5db8c1f746c7adcbcd13cf8945dd2ac6ad58be52380b8c4933c876f76e1bf3386423460405161029b949392919061075f565b60405180910390a360019150509392505050565b6060600160008373ffffffffffffffffffffffffffffffffffffffff1673ffffffffffffffffffffffffffffffffffffffff16815260200190815260200160002080548060200260200160405190810160405280929190818152602001828054801561037057602002820191906000526020600020905b8160009054906101000a900473ffffffffffffffffffffffffffffffffffffffff1673ffffffffffffffffffffffffffffffffffffffff1681526020019060010190808311610326575b50505050509050919050565b6000808260601b90506040517f3d602d80600a3d3981f3363d3d373d3d3d363d7300000000000000000000000081528160148201527f5af43d82803e903d91602b57fd5bf3000000000000000000000000000000000060288201526037816000f092505050919050565b600073ffffffffffffffffffffffffffffffffffffffff82169050919050565b6000819050919050565b600061042b610426610421846103e6565b610406565b6103e6565b9050919050565b600061043d82610410565b9050919050565b600061044f82610432565b9050919050565b61045f81610444565b82525050565b600060208201905061047a6000830184610456565b92915050565b600080fd5b6000610490826103e6565b9050919050565b60006104a282610485565b9050919050565b6104b281610497565b81146104bd57600080fd5b50565b6000813590506104cf816104a9565b92915050565b6104de81610485565b81146104e957600080fd5b50565b6000813590506104fb816104d5565b92915050565b6000819050919050565b61051481610501565b811461051f57600080fd5b50565b6000813590506105318161050b565b92915050565b6000806000606084860312156105505761054f610480565b5b600061055e868287016104c0565b935050602061056f868287016104ec565b925050604061058086828701610522565b9150509250925092565b60008115159050919050565b61059f8161058a565b82525050565b60006020820190506105ba6000830184610596565b92915050565b6000602082840312156105d6576105d5610480565b5b60006105e4848285016104ec565b91505092915050565b600081519050919050565b600082825260208201905092915050565b6000819050602082019050919050565b61062281610485565b82525050565b60006106348383610619565b60208301905092915050565b6000602082019050919050565b6000610658826105ed565b61066281856105f8565b935061066d83610609565b8060005b8381101561069e5781516106858882610628565b975061069083610640565b925050600181019050610671565b5085935050505092915050565b600060208201905081810360008301526106c5818461064d565b905092915050565b60006106d882610432565b9050919050565b6106e8816106cd565b82525050565b6106f781610485565b82525050565b61070681610501565b82525050565b600060a08201905061072160008301886106df565b61072e60208301876106ee565b61073b60408301866106ee565b61074860608301856106fd565b61075560808301846106fd565b9695505050505050565b600060808201905061077460008301876106ee565b61078160208301866106fd565b61078e60408301856106fd565b61079b60608301846106fd565b9594505050505056fea2646970667358221220efccd02d40d1621d6bb42e3b18ecbf389d966d33b86d562908a1b0269ac1760c64736f6c63430008130033",
  "immutableReferences": {},
  "source": "// SPDX-License-Identifier: MIT\r\npragma solidity >=0.4.22 <0.9.0;\r\n\r\nimport \"./TimeLockWallet.sol\";\r\nimport \"./CloneFactory.sol\";\r\n\r\ncontract TimeLockWalletFactory is CloneFactory {\r\n    TimeLockWallet public newWallet;\r\n\r\n    mapping(address => address[]) wallets;\r\n    address masterContract;\r\n\r\n    event Created(\r\n        address indexed wallet,\r\n        address indexed beneficiary,\r\n        address creator,\r\n        uint256 releaseTime,\r\n        uint256 createdAt,\r\n        uint256 amount\r\n    );\r\n\r\n    constructor(address _masterContract) public {\r\n        masterContract = _masterContract;\r\n    }\r\n\r\n    function createNewWallet(\r\n        IERC20 token,\r\n        address beneficiary,\r\n        uint256 releaseTime\r\n    ) public payable returns (bool) {\r\n        TimeLockWallet timeLockWallet =\r\n            TimeLockWallet(createClone(masterContract));\r\n\r\n        timeLockWallet.init(\r\n            token,\r\n            beneficiary,\r\n            msg.sender,\r\n            block.timestamp,\r\n            releaseTime\r\n        );\r\n\r\n        wallets[beneficiary].push(address(timeLockWallet));\r\n\r\n        emit Created(\r\n            address(timeLockWallet),\r\n            beneficiary,\r\n            msg.sender,\r\n            releaseTime,\r\n            block.timestamp,\r\n            msg.value\r\n        );\r\n        return true;\r\n    }\r\n\r\n    function getWalletList(address owner)\r\n        public\r\n        view\r\n        returns (address[] memory)\r\n    {\r\n        return wallets[owner];\r\n    }\r\n}\r\n",
  "sourcePath": "D:\\deepak\\practise\\block_prj\\newblock\\contracts\\TimeLockWalletFactory.sol",
  "compiler": {
    "name": "solc",
    "version": "0.8.19+commit.7dd6d404.Emscripten.clang"
  },
  "schemaVersion": "3.4.13",
  "updatedAt": "2023-04-16T06:03:59.342Z",
  "networkType": "ethereum",
  "devdoc": {
    "kind": "dev",
    "methods": {},
    "version": 1
  },
  "userdoc": {
    "kind": "user",
    "methods": {},
    "version": 1
  }
}